{
  "contractName": "Voting",
  "abi": [
    {
      "anonymous": false,
      "inputs": [
        {
          "indexed": true,
          "internalType": "address",
          "name": "previousOwner",
          "type": "address"
        },
        {
          "indexed": true,
          "internalType": "address",
          "name": "newOwner",
          "type": "address"
        }
      ],
      "name": "OwnershipTransferred",
      "type": "event"
    },
    {
      "anonymous": false,
      "inputs": [
        {
          "indexed": false,
          "internalType": "uint256",
          "name": "proposalId",
          "type": "uint256"
        }
      ],
      "name": "ProposalRegistered",
      "type": "event"
    },
    {
      "anonymous": false,
      "inputs": [
        {
          "indexed": false,
          "internalType": "address",
          "name": "voter",
          "type": "address"
        },
        {
          "indexed": false,
          "internalType": "uint256",
          "name": "proposalId",
          "type": "uint256"
        }
      ],
      "name": "Voted",
      "type": "event"
    },
    {
      "anonymous": false,
      "inputs": [
        {
          "indexed": false,
          "internalType": "address",
          "name": "voterAddress",
          "type": "address"
        }
      ],
      "name": "VoterRegistered",
      "type": "event"
    },
    {
      "anonymous": false,
      "inputs": [
        {
          "indexed": false,
          "internalType": "enum Voting.WorkflowStatus",
          "name": "previousStatus",
          "type": "uint8"
        },
        {
          "indexed": false,
          "internalType": "enum Voting.WorkflowStatus",
          "name": "newStatus",
          "type": "uint8"
        }
      ],
      "name": "WorkflowStatusChange",
      "type": "event"
    },
    {
      "inputs": [],
      "name": "owner",
      "outputs": [
        {
          "internalType": "address",
          "name": "",
          "type": "address"
        }
      ],
      "stateMutability": "view",
      "type": "function",
      "constant": true
    },
    {
      "inputs": [],
      "name": "renounceOwnership",
      "outputs": [],
      "stateMutability": "nonpayable",
      "type": "function"
    },
    {
      "inputs": [
        {
          "internalType": "address",
          "name": "newOwner",
          "type": "address"
        }
      ],
      "name": "transferOwnership",
      "outputs": [],
      "stateMutability": "nonpayable",
      "type": "function"
    },
    {
      "inputs": [],
      "name": "workflowStatus",
      "outputs": [
        {
          "internalType": "enum Voting.WorkflowStatus",
          "name": "",
          "type": "uint8"
        }
      ],
      "stateMutability": "view",
      "type": "function",
      "constant": true
    },
    {
      "inputs": [
        {
          "internalType": "address",
          "name": "_addr",
          "type": "address"
        }
      ],
      "name": "getVoter",
      "outputs": [
        {
          "components": [
            {
              "internalType": "bool",
              "name": "isRegistered",
              "type": "bool"
            },
            {
              "internalType": "bool",
              "name": "hasVoted",
              "type": "bool"
            },
            {
              "internalType": "uint256",
              "name": "votedProposalId",
              "type": "uint256"
            }
          ],
          "internalType": "struct Voting.Voter",
          "name": "",
          "type": "tuple"
        }
      ],
      "stateMutability": "view",
      "type": "function",
      "constant": true
    },
    {
      "inputs": [
        {
          "internalType": "uint256",
          "name": "_id",
          "type": "uint256"
        }
      ],
      "name": "getOneProposal",
      "outputs": [
        {
          "components": [
            {
              "internalType": "string",
              "name": "description",
              "type": "string"
            },
            {
              "internalType": "uint256",
              "name": "voteCount",
              "type": "uint256"
            }
          ],
          "internalType": "struct Voting.Proposal",
          "name": "",
          "type": "tuple"
        }
      ],
      "stateMutability": "view",
      "type": "function",
      "constant": true
    },
    {
      "inputs": [
        {
          "internalType": "address",
          "name": "_addr",
          "type": "address"
        }
      ],
      "name": "addVoter",
      "outputs": [],
      "stateMutability": "nonpayable",
      "type": "function"
    },
    {
      "inputs": [
        {
          "internalType": "address",
          "name": "_addr",
          "type": "address"
        }
      ],
      "name": "deleteVoter",
      "outputs": [],
      "stateMutability": "nonpayable",
      "type": "function"
    },
    {
      "inputs": [
        {
          "internalType": "string",
          "name": "_desc",
          "type": "string"
        }
      ],
      "name": "addProposal",
      "outputs": [],
      "stateMutability": "nonpayable",
      "type": "function"
    },
    {
      "inputs": [
        {
          "internalType": "uint256",
          "name": "_id",
          "type": "uint256"
        }
      ],
      "name": "setVote",
      "outputs": [],
      "stateMutability": "nonpayable",
      "type": "function"
    },
    {
      "inputs": [
        {
          "internalType": "uint256",
          "name": "_num",
          "type": "uint256"
        }
      ],
      "name": "setWorkflowStatus",
      "outputs": [],
      "stateMutability": "nonpayable",
      "type": "function"
    },
    {
      "inputs": [],
      "name": "tallyVotesDraw",
      "outputs": [],
      "stateMutability": "nonpayable",
      "type": "function"
    }
  ],
  "bytecode": "0x608060405234801561001057600080fd5b5061002d61002261003260201b60201c565b61003a60201b60201c565b6100fe565b600033905090565b60008060009054906101000a900473ffffffffffffffffffffffffffffffffffffffff169050816000806101000a81548173ffffffffffffffffffffffffffffffffffffffff021916908373ffffffffffffffffffffffffffffffffffffffff1602179055508173ffffffffffffffffffffffffffffffffffffffff168173ffffffffffffffffffffffffffffffffffffffff167f8be0079c531659141344cd1fd0a4f28419497f9722a3daafe3b4186f6b6457e060405160405180910390a35050565b61233e806200010e6000396000f3fe608060405234801561001057600080fd5b50600436106100b45760003560e01c80638da5cb5b116100715780638da5cb5b1461013d578063a1edffa21461015b578063a2788cce14610179578063d4f50f98146101a9578063f2fde38b146101d9578063f4ab9adf146101f5576100b4565b8063230796ae146100b95780632fdae3c5146100d55780633beee92e146100f1578063424f80db146100fb578063715018a61461011757806388e1c73914610121575b600080fd5b6100d360048036038101906100ce9190611589565b610211565b005b6100ef60048036038101906100ea91906116fc565b61050c565b005b6100f961074f565b005b61011560048036038101906101109190611589565b610a34565b005b61011f610bb0565b005b61013b600480360381019061013691906117a3565b610bc4565b005b610145610d6d565b60405161015291906117df565b60405180910390f35b610163610d96565b6040516101709190611871565b60405180910390f35b610193600480360381019061018e9190611589565b610da9565b6040516101a09190611960565b60405180910390f35b6101c360048036038101906101be91906117a3565b610f10565b6040516101d091906119df565b60405180910390f35b6101f360048036038101906101ee91906117a3565b611038565b005b61020f600480360381019061020a91906117a3565b6110bb565b005b600560003373ffffffffffffffffffffffffffffffffffffffff1673ffffffffffffffffffffffffffffffffffffffff16815260200190815260200160002060000160009054906101000a900460ff166102a0576040517f08c379a000000000000000000000000000000000000000000000000000000000815260040161029790611a57565b60405180910390fd5b600360058111156102b4576102b36117fa565b5b600360009054906101000a900460ff1660058111156102d6576102d56117fa565b5b14610316576040517f08c379a000000000000000000000000000000000000000000000000000000000815260040161030d90611ae9565b60405180910390fd5b60011515600560003373ffffffffffffffffffffffffffffffffffffffff1673ffffffffffffffffffffffffffffffffffffffff16815260200190815260200160002060000160019054906101000a900460ff161515036103ac576040517f08c379a00000000000000000000000000000000000000000000000000000000081526004016103a390611b55565b60405180910390fd5b60048054905081106103f3576040517f08c379a00000000000000000000000000000000000000000000000000000000081526004016103ea90611bc1565b60405180910390fd5b80600560003373ffffffffffffffffffffffffffffffffffffffff1673ffffffffffffffffffffffffffffffffffffffff168152602001908152602001600020600101819055506001600560003373ffffffffffffffffffffffffffffffffffffffff1673ffffffffffffffffffffffffffffffffffffffff16815260200190815260200160002060000160016101000a81548160ff021916908315150217905550600481815481106104a9576104a8611be1565b5b906000526020600020906002020160010160008154809291906104cb90611c3f565b91905055507f4d99b957a2bc29a30ebd96a7be8e68fe50a3c701db28a91436490b7d53870ca43382604051610501929190611c96565b60405180910390a150565b600560003373ffffffffffffffffffffffffffffffffffffffff1673ffffffffffffffffffffffffffffffffffffffff16815260200190815260200160002060000160009054906101000a900460ff1661059b576040517f08c379a000000000000000000000000000000000000000000000000000000000815260040161059290611a57565b60405180910390fd5b600160058111156105af576105ae6117fa565b5b600360009054906101000a900460ff1660058111156105d1576105d06117fa565b5b14610611576040517f08c379a000000000000000000000000000000000000000000000000000000000815260040161060890611d0b565b60405180910390fd5b60405160200161062090611d51565b60405160208183030381529060405280519060200120816040516020016106479190611daa565b604051602081830303815290604052805190602001200361069d576040517f08c379a000000000000000000000000000000000000000000000000000000000815260040161069490611e3e565b60405180910390fd5b6106a56113ae565b818160000181905250600481908060018154018082558091505060019003906000526020600020906002020160009091909190915060008201518160000190805190602001906106f69291906113c8565b506020820151816001015550507f92e393e9b54e2f801d3ea4beb0c5e71a21cc34a5d34b77d0fb8a3aa1650dc18f60016004805490506107369190611e5e565b6040516107439190611e92565b60405180910390a15050565b610757611264565b6004600581111561076b5761076a6117fa565b5b600360009054906101000a900460ff16600581111561078d5761078c6117fa565b5b146107cd576040517f08c379a00000000000000000000000000000000000000000000000000000000081526004016107c490611f1f565b60405180910390fd5b60006107d761144e565b600080600090505b6004805490508110156108d957836004828154811061080157610800611be1565b5b90600052602060002090600202016001015403610844578083836005811061082c5761082b611be1565b5b602002018181525050818061084090611c3f565b9250505b836004828154811061085957610858611be1565b5b90600052602060002090600202016001015411156108c65761087961144e565b925080836000600581106108905761088f611be1565b5b602002018181525050600481815481106108ad576108ac611be1565b5b9060005260206000209060020201600101549350600191505b80806108d190611c3f565b9150506107df565b5060005b818110156109c85760018382600581106108fa576108f9611be1565b5b602002015190806001815401808255809150506001900390600052602060002001600090919091909150556002600484836005811061093c5761093b611be1565b5b60200201518154811061095257610951611be1565b5b90600052602060002090600202019080600181540180825580915050600190039060005260206000209060020201600090919091909150600082018160000190805461099d90611f6e565b6109a8929190611470565b5060018201548160010155505080806109c090611c3f565b9150506108dd565b506005600360006101000a81548160ff021916908360058111156109ef576109ee6117fa565b5b02179055507f0a97a4ee45751e2abf3e4fc8946939630b11b371ea8ae39ccdc3056e98f5cc3f60046005604051610a27929190611f9f565b60405180910390a1505050565b80600181610a429190611e5e565b6005811115610a5457610a536117fa565b5b6005811115610a6657610a656117fa565b5b600360009054906101000a900460ff166005811115610a8857610a876117fa565b5b14610ac8576040517f08c379a0000000000000000000000000000000000000000000000000000000008152600401610abf90612014565b60405180910390fd5b60058103610b0b576040517f08c379a0000000000000000000000000000000000000000000000000000000008152600401610b0290612080565b60405180910390fd5b610b13611264565b6000600360009054906101000a900460ff169050826005811115610b3a57610b396117fa565b5b600360006101000a81548160ff02191690836005811115610b5e57610b5d6117fa565b5b02179055507f0a97a4ee45751e2abf3e4fc8946939630b11b371ea8ae39ccdc3056e98f5cc3f81600360009054906101000a900460ff16604051610ba3929190611f9f565b60405180910390a1505050565b610bb8611264565b610bc260006112e2565b565b610bcc611264565b60006005811115610be057610bdf6117fa565b5b600360009054906101000a900460ff166005811115610c0257610c016117fa565b5b14610c42576040517f08c379a0000000000000000000000000000000000000000000000000000000008152600401610c3990612112565b60405180910390fd5b60011515600560008373ffffffffffffffffffffffffffffffffffffffff1673ffffffffffffffffffffffffffffffffffffffff16815260200190815260200160002060000160009054906101000a900460ff16151514610cd8576040517f08c379a0000000000000000000000000000000000000000000000000000000008152600401610ccf9061217e565b60405180910390fd5b6000600560008373ffffffffffffffffffffffffffffffffffffffff1673ffffffffffffffffffffffffffffffffffffffff16815260200190815260200160002060000160006101000a81548160ff0219169083151502179055507fb6be2187d059cc2a55fe29e0e503b566e1e0f8c8780096e185429350acffd3dd81604051610d6291906117df565b60405180910390a150565b60008060009054906101000a900473ffffffffffffffffffffffffffffffffffffffff16905090565b600360009054906101000a900460ff1681565b610db16113ae565b600560003373ffffffffffffffffffffffffffffffffffffffff1673ffffffffffffffffffffffffffffffffffffffff16815260200190815260200160002060000160009054906101000a900460ff16610e40576040517f08c379a0000000000000000000000000000000000000000000000000000000008152600401610e3790611a57565b60405180910390fd5b60048281548110610e5457610e53611be1565b5b9060005260206000209060020201604051806040016040529081600082018054610e7d90611f6e565b80601f0160208091040260200160405190810160405280929190818152602001828054610ea990611f6e565b8015610ef65780601f10610ecb57610100808354040283529160200191610ef6565b820191906000526020600020905b815481529060010190602001808311610ed957829003601f168201915b505050505081526020016001820154815250509050919050565b610f186114fd565b600560003373ffffffffffffffffffffffffffffffffffffffff1673ffffffffffffffffffffffffffffffffffffffff16815260200190815260200160002060000160009054906101000a900460ff16610fa7576040517f08c379a0000000000000000000000000000000000000000000000000000000008152600401610f9e90611a57565b60405180910390fd5b600560008373ffffffffffffffffffffffffffffffffffffffff1673ffffffffffffffffffffffffffffffffffffffff1681526020019081526020016000206040518060600160405290816000820160009054906101000a900460ff161515151581526020016000820160019054906101000a900460ff161515151581526020016001820154815250509050919050565b611040611264565b600073ffffffffffffffffffffffffffffffffffffffff168173ffffffffffffffffffffffffffffffffffffffff16036110af576040517f08c379a00000000000000000000000000000000000000000000000000000000081526004016110a690612210565b60405180910390fd5b6110b8816112e2565b50565b6110c3611264565b600060058111156110d7576110d66117fa565b5b600360009054906101000a900460ff1660058111156110f9576110f86117fa565b5b14611139576040517f08c379a000000000000000000000000000000000000000000000000000000000815260040161113090612112565b60405180910390fd5b60011515600560008373ffffffffffffffffffffffffffffffffffffffff1673ffffffffffffffffffffffffffffffffffffffff16815260200190815260200160002060000160009054906101000a900460ff161515036111cf576040517f08c379a00000000000000000000000000000000000000000000000000000000081526004016111c69061227c565b60405180910390fd5b6001600560008373ffffffffffffffffffffffffffffffffffffffff1673ffffffffffffffffffffffffffffffffffffffff16815260200190815260200160002060000160006101000a81548160ff0219169083151502179055507fb6be2187d059cc2a55fe29e0e503b566e1e0f8c8780096e185429350acffd3dd8160405161125991906117df565b60405180910390a150565b61126c6113a6565b73ffffffffffffffffffffffffffffffffffffffff1661128a610d6d565b73ffffffffffffffffffffffffffffffffffffffff16146112e0576040517f08c379a00000000000000000000000000000000000000000000000000000000081526004016112d7906122e8565b60405180910390fd5b565b60008060009054906101000a900473ffffffffffffffffffffffffffffffffffffffff169050816000806101000a81548173ffffffffffffffffffffffffffffffffffffffff021916908373ffffffffffffffffffffffffffffffffffffffff1602179055508173ffffffffffffffffffffffffffffffffffffffff168173ffffffffffffffffffffffffffffffffffffffff167f8be0079c531659141344cd1fd0a4f28419497f9722a3daafe3b4186f6b6457e060405160405180910390a35050565b600033905090565b604051806040016040528060608152602001600081525090565b8280546113d490611f6e565b90600052602060002090601f0160209004810192826113f6576000855561143d565b82601f1061140f57805160ff191683800117855561143d565b8280016001018555821561143d579182015b8281111561143c578251825591602001919060010190611421565b5b50905061144a9190611522565b5090565b6040518060a00160405280600590602082028036833780820191505090505090565b82805461147c90611f6e565b90600052602060002090601f01602090048101928261149e57600085556114ec565b82601f106114af57805485556114ec565b828001600101855582156114ec57600052602060002091601f016020900482015b828111156114eb5782548255916001019190600101906114d0565b5b5090506114f99190611522565b5090565b6040518060600160405280600015158152602001600015158152602001600081525090565b5b8082111561153b576000816000905550600101611523565b5090565b6000604051905090565b600080fd5b600080fd5b6000819050919050565b61156681611553565b811461157157600080fd5b50565b6000813590506115838161155d565b92915050565b60006020828403121561159f5761159e611549565b5b60006115ad84828501611574565b91505092915050565b600080fd5b600080fd5b6000601f19601f8301169050919050565b7f4e487b7100000000000000000000000000000000000000000000000000000000600052604160045260246000fd5b611609826115c0565b810181811067ffffffffffffffff82111715611628576116276115d1565b5b80604052505050565b600061163b61153f565b90506116478282611600565b919050565b600067ffffffffffffffff821115611667576116666115d1565b5b611670826115c0565b9050602081019050919050565b82818337600083830152505050565b600061169f61169a8461164c565b611631565b9050828152602081018484840111156116bb576116ba6115bb565b5b6116c684828561167d565b509392505050565b600082601f8301126116e3576116e26115b6565b5b81356116f384826020860161168c565b91505092915050565b60006020828403121561171257611711611549565b5b600082013567ffffffffffffffff8111156117305761172f61154e565b5b61173c848285016116ce565b91505092915050565b600073ffffffffffffffffffffffffffffffffffffffff82169050919050565b600061177082611745565b9050919050565b61178081611765565b811461178b57600080fd5b50565b60008135905061179d81611777565b92915050565b6000602082840312156117b9576117b8611549565b5b60006117c78482850161178e565b91505092915050565b6117d981611765565b82525050565b60006020820190506117f460008301846117d0565b92915050565b7f4e487b7100000000000000000000000000000000000000000000000000000000600052602160045260246000fd5b6006811061183a576118396117fa565b5b50565b600081905061184b82611829565b919050565b600061185b8261183d565b9050919050565b61186b81611850565b82525050565b60006020820190506118866000830184611862565b92915050565b600081519050919050565b600082825260208201905092915050565b60005b838110156118c65780820151818401526020810190506118ab565b838111156118d5576000848401525b50505050565b60006118e68261188c565b6118f08185611897565b93506119008185602086016118a8565b611909816115c0565b840191505092915050565b61191d81611553565b82525050565b6000604083016000830151848203600086015261194082826118db565b91505060208301516119556020860182611914565b508091505092915050565b6000602082019050818103600083015261197a8184611923565b905092915050565b60008115159050919050565b61199781611982565b82525050565b6060820160008201516119b3600085018261198e565b5060208201516119c6602085018261198e565b5060408201516119d96040850182611914565b50505050565b60006060820190506119f4600083018461199d565b92915050565b600082825260208201905092915050565b7f596f75277265206e6f74206120766f7465720000000000000000000000000000600082015250565b6000611a416012836119fa565b9150611a4c82611a0b565b602082019050919050565b60006020820190508181036000830152611a7081611a34565b9050919050565b7f566f74696e672073657373696f6e20686176656e74207374617274656420796560008201527f7400000000000000000000000000000000000000000000000000000000000000602082015250565b6000611ad36021836119fa565b9150611ade82611a77565b604082019050919050565b60006020820190508181036000830152611b0281611ac6565b9050919050565b7f596f75206861766520616c726561647920766f74656400000000000000000000600082015250565b6000611b3f6016836119fa565b9150611b4a82611b09565b602082019050919050565b60006020820190508181036000830152611b6e81611b32565b9050919050565b7f50726f706f73616c206e6f7420666f756e640000000000000000000000000000600082015250565b6000611bab6012836119fa565b9150611bb682611b75565b602082019050919050565b60006020820190508181036000830152611bda81611b9e565b9050919050565b7f4e487b7100000000000000000000000000000000000000000000000000000000600052603260045260246000fd5b7f4e487b7100000000000000000000000000000000000000000000000000000000600052601160045260246000fd5b6000611c4a82611553565b91507fffffffffffffffffffffffffffffffffffffffffffffffffffffffffffffffff8203611c7c57611c7b611c10565b5b600182019050919050565b611c9081611553565b82525050565b6000604082019050611cab60008301856117d0565b611cb86020830184611c87565b9392505050565b7f50726f706f73616c7320617265206e6f7420616c6c6f77656420796574000000600082015250565b6000611cf5601d836119fa565b9150611d0082611cbf565b602082019050919050565b60006020820190508181036000830152611d2481611ce8565b9050919050565b50565b6000611d3b6000836119fa565b9150611d4682611d2b565b600082019050919050565b60006020820190508181036000830152611d6a81611d2e565b9050919050565b6000611d7c8261188c565b611d8681856119fa565b9350611d968185602086016118a8565b611d9f816115c0565b840191505092915050565b60006020820190508181036000830152611dc48184611d71565b905092915050565b7f566f7573206e6520706f7576657a20706173206e65207269656e2070726f706f60008201527f7365720000000000000000000000000000000000000000000000000000000000602082015250565b6000611e286023836119fa565b9150611e3382611dcc565b604082019050919050565b60006020820190508181036000830152611e5781611e1b565b9050919050565b6000611e6982611553565b9150611e7483611553565b925082821015611e8757611e86611c10565b5b828203905092915050565b6000602082019050611ea76000830184611c87565b92915050565b7f43757272656e7420737461747573206973206e6f7420766f74696e672073657360008201527f73696f6e20656e64656400000000000000000000000000000000000000000000602082015250565b6000611f09602a836119fa565b9150611f1482611ead565b604082019050919050565b60006020820190508181036000830152611f3881611efc565b9050919050565b7f4e487b7100000000000000000000000000000000000000000000000000000000600052602260045260246000fd5b60006002820490506001821680611f8657607f821691505b602082108103611f9957611f98611f3f565b5b50919050565b6000604082019050611fb46000830185611862565b611fc16020830184611862565b9392505050565b7f62616420776f726b666c6f777374617475730000000000000000000000000000600082015250565b6000611ffe6012836119fa565b915061200982611fc8565b602082019050919050565b6000602082019050818103600083015261202d81611ff1565b9050919050565b7f696c2066617574206c616e6365722074616c6c7920766f746573000000000000600082015250565b600061206a601a836119fa565b915061207582612034565b602082019050919050565b600060208201905081810360008301526120998161205d565b9050919050565b7f566f7465727320726567697374726174696f6e206973206e6f74206f70656e2060008201527f7965740000000000000000000000000000000000000000000000000000000000602082015250565b60006120fc6023836119fa565b9150612107826120a0565b604082019050919050565b6000602082019050818103600083015261212b816120ef565b9050919050565b7f4e6f7420726567697374657265642e0000000000000000000000000000000000600082015250565b6000612168600f836119fa565b915061217382612132565b602082019050919050565b600060208201905081810360008301526121978161215b565b9050919050565b7f4f776e61626c653a206e6577206f776e657220697320746865207a65726f206160008201527f6464726573730000000000000000000000000000000000000000000000000000602082015250565b60006121fa6026836119fa565b91506122058261219e565b604082019050919050565b60006020820190508181036000830152612229816121ed565b9050919050565b7f416c726561647920726567697374657265640000000000000000000000000000600082015250565b60006122666012836119fa565b915061227182612230565b602082019050919050565b6000602082019050818103600083015261229581612259565b9050919050565b7f4f776e61626c653a2063616c6c6572206973206e6f7420746865206f776e6572600082015250565b60006122d26020836119fa565b91506122dd8261229c565b602082019050919050565b60006020820190508181036000830152612301816122c5565b905091905056fea264697066735822122088aea0be8938aac415a5f7e99ff2eb474b41ba525424973ae62002ee0c0c023b64736f6c634300080e0033",
  "immutableReferences": {},
  "source": "// SPDX-License-Identifier: MIT\n\npragma solidity 0.8.14;\n\nimport \"../node_modules/@openzeppelin/contracts/access/Ownable.sol\";\n\n\ncontract Voting is Ownable {\n\n    uint[] winningProposalsID;\n    Proposal[] winningProposals;\n    \n    struct Voter {\n        bool isRegistered;\n        bool hasVoted;\n        uint votedProposalId;\n    }\n\n    struct Proposal {\n        string description;\n        uint voteCount;\n    }\n\n    enum  WorkflowStatus {\n        RegisteringVoters,\n        ProposalsRegistrationStarted,\n        ProposalsRegistrationEnded,\n        VotingSessionStarted,\n        VotingSessionEnded,\n        VotesTallied\n    }\n\n    WorkflowStatus public workflowStatus;\n    Proposal[] proposalsArray;\n    mapping (address => Voter) voters;\n\n\n    event VoterRegistered(address voterAddress); \n    event WorkflowStatusChange(WorkflowStatus previousStatus, WorkflowStatus newStatus);\n    event ProposalRegistered(uint proposalId);\n    event Voted (address voter, uint proposalId);\n\n    modifier onlyVoters() {\n        require(voters[msg.sender].isRegistered, \"You're not a voter\");\n        _;\n    }\n    \n    // on peut faire un modifier pour les tats\n\n    // ::::::::::::: GETTERS ::::::::::::: //\n\n    function getVoter(address _addr) external onlyVoters view returns (Voter memory) {\n        return voters[_addr];\n    }\n    \n    function getOneProposal(uint _id) external onlyVoters view returns (Proposal memory) {\n        return proposalsArray[_id];\n    }\n\n \n    // ::::::::::::: REGISTRATION ::::::::::::: // \n\n    function addVoter(address _addr) external onlyOwner {\n        require(workflowStatus == WorkflowStatus.RegisteringVoters, 'Voters registration is not open yet');\n        require(voters[_addr].isRegistered != true, 'Already registered');\n    \n        voters[_addr].isRegistered = true;\n        emit VoterRegistered(_addr);\n    }\n \n    \n    function deleteVoter(address _addr) external onlyOwner {\n        require(workflowStatus == WorkflowStatus.RegisteringVoters, 'Voters registration is not open yet');\n        require(voters[_addr].isRegistered == true, 'Not registered.');\n        voters[_addr].isRegistered = false;\n        emit VoterRegistered(_addr);\n    }\n\n    // ::::::::::::: PROPOSAL ::::::::::::: // \n\n    function addProposal(string memory _desc) external onlyVoters {\n        require(workflowStatus == WorkflowStatus.ProposalsRegistrationStarted, 'Proposals are not allowed yet');\n        require(keccak256(abi.encode(_desc)) != keccak256(abi.encode(\"\")), 'Vous ne pouvez pas ne rien proposer'); // facultatif\n        // voir que desc est different des autres\n\n        Proposal memory proposal;\n        proposal.description = _desc;\n        proposalsArray.push(proposal);\n        emit ProposalRegistered(proposalsArray.length-1);\n    }\n\n    // ::::::::::::: VOTE ::::::::::::: //\n\n    function setVote( uint _id) external onlyVoters {\n        require(workflowStatus == WorkflowStatus.VotingSessionStarted, 'Voting session havent started yet');\n        require(voters[msg.sender].hasVoted != true, 'You have already voted');\n        require(_id < proposalsArray.length, 'Proposal not found'); // pas oblig, et pas besoin du >0 car uint\n\n        voters[msg.sender].votedProposalId = _id;\n        voters[msg.sender].hasVoted = true;\n        proposalsArray[_id].voteCount++;\n\n        emit Voted(msg.sender, _id);\n    }\n\n    // ::::::::::::: STATE ::::::::::::: //\n\n    modifier checkWorkflowStatus(uint  _num) {\n        require (workflowStatus==WorkflowStatus(uint(_num)-1), \"bad workflowstatus\");\n        require (_num != 5, \"il faut lancer tally votes\");\n        _;\n      }\n    \n    function setWorkflowStatus(uint _num) external checkWorkflowStatus(_num) onlyOwner {\n        WorkflowStatus old = workflowStatus;\n        workflowStatus = WorkflowStatus(_num);\n        emit WorkflowStatusChange(old, workflowStatus);\n       } \n    \n        \n\n    function tallyVotesDraw() external onlyOwner {\n       require(workflowStatus == WorkflowStatus.VotingSessionEnded, \"Current status is not voting session ended\");\n        uint highestCount;\n        uint[5]memory winners; // egalite entre 5 personnes max\n        uint nbWinners;\n        for (uint i = 0; i < proposalsArray.length; i++) {\n            if (proposalsArray[i].voteCount == highestCount) {\n                winners[nbWinners]=i;\n                nbWinners++;\n            }\n            if (proposalsArray[i].voteCount > highestCount) {\n                delete winners;\n                winners[0]= i;\n                highestCount = proposalsArray[i].voteCount;\n                nbWinners=1;\n            }\n        }\n        for(uint j=0;j<nbWinners;j++){\n            winningProposalsID.push(winners[j]);\n            winningProposals.push(proposalsArray[winners[j]]);\n        }\n        workflowStatus = WorkflowStatus.VotesTallied;\n        emit WorkflowStatusChange(WorkflowStatus.VotingSessionEnded, WorkflowStatus.VotesTallied);\n    }\n\n\n\n}\n",
  "sourcePath": "/home/none/cours/unbox/truffle/contracts/Voting.sol",
  "compiler": {
    "name": "solc",
    "version": "0.8.14+commit.80d49f37.Emscripten.clang"
  },
  "schemaVersion": "3.4.7",
  "updatedAt": "2022-07-19T14:51:27.511Z",
  "networkType": "ethereum",
  "devdoc": {
    "kind": "dev",
    "methods": {
      "owner()": {
        "details": "Returns the address of the current owner."
      },
      "renounceOwnership()": {
        "details": "Leaves the contract without owner. It will not be possible to call `onlyOwner` functions anymore. Can only be called by the current owner. NOTE: Renouncing ownership will leave the contract without an owner, thereby removing any functionality that is only available to the owner."
      },
      "transferOwnership(address)": {
        "details": "Transfers ownership of the contract to a new account (`newOwner`). Can only be called by the current owner."
      }
    },
    "version": 1
  },
  "userdoc": {
    "kind": "user",
    "methods": {},
    "version": 1
  }
}